:1007A7003F065B4F666D7D077F6F400000010203C8
:1007B7000405060700EF00C500AF00A00096008EF5
:1007C70000870081007C007800740071006D006B69
:1007D7000068006500630061005F005D005B005A10
:1007E7000058005600550054005200510050004E6A
:1007F700004D004C004B004A0049004800470046A6
:100807000045004400430043004200410040003FD0
:10081700003F003E003D003D003C003B003A003AEF
:100827000039003900380037003700360036003508
:10083700003400340033003300320032003100311D
:1008470000300030002F002F002E002E002D002D2D
:10085700002C002C002B002B002A002A002900293D
:100867000029002800280027002700260026002648
:100877000025002500240024002400230023002253
:100887000022002200210021002000200020001F5C
:10089700001F001F001E001E001D001D001D001C64
:1008A700001C001C001B001B001B001A001A001A6A
:1008B7000019001900180018001800170017001772
:1008C7000016001600160015001500150014001478
:1008D700001400130013001300120012001200117D
:1008E7000011001000100010000F000F000F000E85
:1008F700000E000E000D000D000D000C000C000C8A
:10090700000B000B000B000A000A00090009000990
:100917000008000800080007000700070006000697
:100927000005000500360004000300030003000271
:10093700000200010001000100000000FFFFFFFFAF
:10094700FFFFFFFEFFFEFFFDFFFDFFFCFFFCFFFBC0
:10095700FFFBFFFAFFFAFFF9FFF9FFF8FFF8FFF7D0
:10096700FFF7FFF6FFF6FFF5FFF5FFF4FFF3FFF3E1
:10097700FFF2FFF2FFF1FFF0FFF0FFEFFFEEFFEDF9
:10098700FFEDFFECFFEBFFEAFFE9FFE8FFE7FFE61C
:10099700FFE5FFE4FFE3FFE2FFE0FFDFFFDDFFDC52
:1009A700FFDAFFD8FFD5FFD2FFCEFFC9FFC101692C
:1013660060200007000200020002000300040005DE
:101376000006000700080009000A000B000C000D1B
:10138600000E000F41003C0142003727E0C190C12A
:1013960004C18FC191C10EC102C10BC100C10CC1F4
:1013A6000A4100000041003D0041049C0041002725
:1013B6000041049D004804AC01020304050B0B0B1D
:1013C60048004500000000000000004204A600009E
:1013D60042049F0000440475000000004204A80077
:0613E600004204AA000011
:10196100E4900002F09004A4F0900006F09000547E
:08197100F090047AF0A3F022CB
:0C1A0F00E4F5957596FFF5937594FF22A1
:1019D200438E805389F0758ACD758CD4C28DD28C9A
:0319E200D2A92265
:10192F00759850438E40538EFE53890F758BE87513
:09193F008DFFC2ABD28ED2AC22A6
:10197900759A50438E0475D7E075D6FE438E104391
:08198900BA01C2B743AF01220D
:03002600D2AF2234
:0A1A3E00D2CD12000AD2C002000A45
:1018DB00E4FD7F8E1219F57F81121A33EF547FFDD1
:0C18EB007F801219F57D807F8E0219F5B8
:1019E500759D80E4F5BD75BC8FF597D2ADD2BD224E
:0C1A1B00E4F5BDF5BE75972075BC8C226B
:0C1A2700E4F5BDF5BE75972075BC8B2260
:03000B000215B922
:1015B900C0E0C083C082C0D0D20E900000E004F029
:1015C900E06414703BF0D20290003DE004F0E06466
:1015D90005702DF0D20B90049CE004F0E0640A70D1
:1015E9001FF0D200900027E004F0E0B43C12E4F0D0
:1015F900D20C90049DE004F0E0B43C04E4F0D20A7B
:09160900D0D0D082D083D0E032B1
:03002B000204F1DB
:1004F100C0E0C0F0C083C082C0D075D000C000C0D1
:1005010001C002C003C004C005C006C007900002BC
:10051100E060030205B99004A7E004F070069004BE
:10052100A6E004F0D39004A7E094F49004A6E0942C
:1005310001405C900475E0FCA3E0FDA3E0FEA3E0B4
:1005410024FAFFE43EFEE43DFDE43CFCE47BF47A66
:1005510001F9F8120AF390049FEEF0A3EFF0900472
:100561009FE0FCA3E0FDAE047805CEC313CE13D803
:10057100F95407900005F0ED541F900028F0900405
:10058100A6E4F0A3F0900475120B91000000009016
:100591000475E0F8A3E0F9A3E0FAA3E0FBAFBDE442
:1005A100FCFDFEEB2FFFEE3AFEED39FDEC38FC9041
:1005B1000475120B8502078690004EE004F0700668
:1005C10090004DE004F0D390004EE094F490004D83
:1005D100E0940150030206D690047AE07004A3E08F
:0705E10064016003020667DC
:1005E800900033E0C313FEA3E013FFE4FCFD90008A
:1005F80055E0F8A3E0F9A3E0FAA3E02FFFEA3EFEF6
:10060800ED39FDEC38FCC006C007900033E0FEA3CE
:10061800E0FBAA06E4F9F8D007D006120AF3900422
:10062800B4EEF0A3EFF0E025E0FF9004B4E033FE71
:1006380074B92FF58274073EF583E493FF74019330
:1006480090002ECFF0A3EFF0900055120B91000010
:0F0658000000900033E4F0A3F090004DF0A3F009
:1006670090047AE0F47003A3E0F460030207869035
:100677000030E0C313FEA3E013FFE4FCFD9000503D
:10068700E0F8A3E0F9A3E0FAA3E02FFFEA3EFEEDCE
:1006970039FDEC38FCC006C007900030E0FEA3E04F
:1006A700FBAA06E4F9F8D007D006120AF390000374
:1006B700EEF0A3EFF0900050120B910000000090B5
:1006C7000030E4F0A3F090004DF0A3F0020786900D
:1006D700047AE07004A3E06401705A900055E0F8D2
:1006E700A3E0F9A3E0FAA3E0FBC000C001C002C089
:1006F70003AFBDEFFEADBE7C00E42DFFEC3EFEEF89
:100707007802CEC313CE13D8F9FFE4FCFDD003D093
:1007170002D001D000EB2FFFEA3EFEED39FDEC38A9
:10072700FC900055120B85900034E004F0700690A1
:100737000033E004F090047AE0B4FF43A3E0B4FF91
:100747003E900050E0F8A3E0F9A3E0FAA3E0FBAF86
:10075700BDEFFEADBE7C00E42DFFEC3EFEE4FDEBFD
:100767002FFFEA3EFEED39FDEC38FC900050120BEE
:1007770085900031E004F07006900030E004F053FB
:10078700BCEF43BC08D007D006D005D004D003D0B7
:1007970002D001D000D0D0D082D083D0F0D0E032C8
:030023000215556E
:10155500C0E0C0F0C083C082C0D075D000C000C05C
:1015650001C002C003C007309930C29990015CE008
:10157500FF04F0D390015BE09F90015AE094005086
:1015850004D210801590015DE0FBA3E475F0011213
:101595000AA1A9F0FA1209D9F599309802C298D092
:1015A50007D003D002D001D000D0D0D082D083D0D4
:0415B500F0D0E03260
:030043000211BAED
:1011BA00C0E0C0F0C083C082C0D075D000C000C0FB
:1011CA0001C002C003C007E59A30E133539AFD908B
:1011DA000368E0FF04F0D3900367E09F900366E0A2
:1011EA0094005006D211C2B78015900369E0FBA3A0
:1011FA00E475F001120AA1A9F0FA1209D9F59BE5E2
:10120A009A30E027539AFE300F2190046EE0FBA338
:10121A00E475F001120AA1A9F0FAE59B1209F2900D
:10122A00046DE004F09004717404F0D007D003D088
:10123A0002D001D000D0D0D082D083D0F0D0E0321A
:05124A009004C2EDF06C
:10124F0074FF9004C7F0A3F0E49004C3F0A3F090F0
:10125F0004C2E0FFC39004C4E09F9004C3E0940075
:10126F0050601209D9FF9004C7E0F0A3E06FF0E4DB
:10127F00FDFC9004C8E05401FF9004C5E4F0A3EF17
:10128F00F0A3E0C313F0A3E013F09004C5E07002E5
:10129F00A3E0600C9004C7E064A0F0A3E06401F049
:1012AF000DBD00010CED64084C70C7740129F9E401
:1012BF003AFA9004C4E004F070959004C3E004F08F
:0A12CF00808D9004C7E0FEA3E0FF4D
:0112D90022F2
:08166B009004C0EEF0A3EFF0C3
:101673007B017A027966FD12124AAD07AC06ECFFD4
:101683009004C0A3E0FE2467F582E43402F583EFFF
:10169300F0AF0574662EF582E43402F583EFF09023
:1016A30004C1E02402FE9004C0E03400900366F01D
:0616B300A3CEF00218773F
:10004600C20F90046DE0FD70030204EC90003CE0EA
:0B005600FF90036DE06F60030204ECFC
:100061007B017A03796D12124A9004BDEEF0A3EF81
:07007100F04E60030204EAF7
:1000780090036EE09004BFF0640160030201A39056
:1000880004B9F0A3F090036FE0FEA3E0FDEDFF904C
:1000980004B9EEF0A3EFF0D39410EE64809480409E
:1000A800030204ECE49004BBF0A3F0900371E0FEBB
:1000B800A3E0FDEDFF9004BBEEF0A3EFF0D39408AE
:1000C800EE6480948040047F0280027F019004B82F
:1000D800EFF090003CE0900266F09004BFE09002E0
:1000E80067F0A3EFF0E49004B6F09004B8E0FF9056
:1000F80004B6E0FEC39F4003020196E4A3F07469CE
:100108002EF582E43402F583E4F09004B7E0FDC3F1
:10011800940850719004B6E0FC75F008A4FFED7ADD
:10012800002FFFEA35F0FEC39004BCE09FEE648028
:10013800F89004BBE0648098404B9004B9A3E0FFBA
:100148009004B7E02FFFEC75F008A42FFF1217CC2E
:100158009004B7E0FEEFA806088002C333D8FCFF7E
:100168009004B6E0FE2469F582E43402F583E04F9A
:10017800FF74692EF582E43402F583EFF09004B73A
:10018800E004F080859004B6E004F00200F29004E8
:10019800B8E02403FFE433FE12166B9004BFE0FDC1
:1001A800640360030202859004B9F0A3F090036F22
:1001B800E0FEA3E0FBEBFF9004B9EEF0A3EFF0D371
:1001C8009410EE6480948040030204ECE49004BB35
:1001D800F0A3F0900371E0FEA3E0FBEBFF9004BBFB
:1001E800EEF0A3EFF090003CE0900266F0A3EDF093
:1001F800EF25E0A3F09004B77403F0E49004B6F0A0
:100208009004B6E0FF7E00D39004BCE09F7480F8B1
:100218009004BBE064809840579004BAE02FFF90A8
:1002280004B9E03EFEEF25E0FDEE33FC747C2DF5CD
:100238008274043CF583E0FF9004B7E0FE2466F581
:1002480082E43402F583EFF0747C2DF58274043C6B
:10025800F583A3E0FF74672EF582E43402F583EF9B
:10026800F09004B7E02402F09004B6E004F0809027
:10027800900268E02403FFE433FE0204E29004BF26
:10028800E0640560030203269004B9F0A3F090032C
:100298006FE0FEA3E0FDEDFF9004B9EEF0A3EFF0F0
:1002A800D39410EE6480948040030204ECE490043C
:1002B800BBF0A3F0900371E0FEA3E0FDEDFF900416
:1002C800BBEEF0A3EFF09000597401F0E4B507100D
:1002D800EEB4FF0C9004B9A3E0FF7D017C00800917
:1002E8009004B9A3E0FFE4FDFC1216B9E49004B64B
:1002F800F09004B6E0FF246DF582E43403F583E062
:10030800FE74662FF582E43402F583EEF09004B6AD
:10031800E004F0E0B406DA7F067E000204E290040E
:10032800BFE0640660030203C49004B9F0A3F09030
:10033800036FE0FEA3E0FDEDFF9004B9EEF0A3EF3C
:10034800F0D39410EE6480948040030204ECE490AF
:1003580004BBF0A3F0900371E0FEA3E0FDEDFF9075
:1003680004BBEEF0FCA3EFF09004BAE025E0FF90A8
:1003780004B9E033FE747C2FF58274043EF583ECF7
:10038800F0A3EDF09000397401F0E49004B6F09019
:1003980004B6E0FF246DF582E43403F583E0FE74CF
:1003A800662FF582E43402F583EEF09004B6E0049B
:1003B800F0E0B406DA7F067E000204E29004BFE0B3
:1003C800641060030204E59004B9F0A3F090036F91
:1003D800E0FEA3E0FDEDFF9004B9EEF0A3EFF0D34B
:1003E8009410EE6480948040030204EC900373E060
:1003F800FF9004BBE4F0A3EFF0E49004B7F090049E
:10040800B6F09004B6E0F9FFD39004BCE09F748086
:10041800F89004BBE064809850030204AE9004B7DF
:10042800E0FF7E009004B9E0FCA3E0FD2FFFEE3C66
:10043800FEEF25E0FBEE33FA747C2BF58274043A68
:10044800F583E4F0A3F0E9FF7E00ED2FFFEE3CFE1C
:10045800EF25E0FFEE33FE747C2FF58274043EF541
:1004680083A3E0FF747429F582E43403F583E0FD87
:10047800EF4DFE747529F582E43403F583E0FDED54
:10048800FF747C2BF58274043AF583EEF0A3EFF049
:100498009004B7E004F09000397401F09004B6E0DD
:1004A8002402F002040A90036DE0900266F09003C3
:1004B8006EE0900267F090036FE0900268F090039E
:1004C80070E0900269F0900371E090026AF0900386
:1004D80072E090026BF07F067E0012166BD20F7FDF
:0204E8000122EF
:0204EA00800090
:0404EC00D20F7F00AC
:0104F00022E9
:1019910090046E7401F0A37403F0A3746DF0E490ED
:0619A100046DF0D20F22DC
:1011250020B2069004A1E004F020B3069004A2E0EA
:1011350004F02097069004A3E004F0900005E0FF7A
:10114500B40506900032E004F0EFB402069004A561
:10115500E004F0EFB4040690049EE004F0EFB4015F
:1011650006900479E004F09004A1E0D3944640028F
:10117500D2069004A2E0D394464002D2079004A37D
:10118500E0D394464002D2089004A5E0D3944640AB
:1011950002D209900032E0D394464002D20D900469
:1011A5009EE0D394464002D205900479E0D394465C
:0511B5004002D20322FC
:1017CC00AD0774017E00A805088005C333CE33CE67
:1017DC00D8F9FF900035E05EFEA3E05FA805088015
:0D17EC0006CEA2E713CE13D8F85401FF2259
:1016B9009004C0ECF0A3EDF0AB0774017E00A80321
:1016C900088005C333CE33CED8F9FFEEF4FEEFF42C
:1016D900FF900035E05EF0A3E05FF0AF039004C037
:1016E900E0FEA3E0A807088005C333CE33CED8F9BE
:0C16F900FF900035E04EF0A3E04FF0221F
:101877002011037F00229003697401F0A37402F022
:10188700A37466F0E4900368F0C211439A02D2B7DA
:031897007F0122AC
:10147100E4F580900001E0FFFD3395E0FC74B32DAD
:10148100F58274073CF583E493F5A0EF3395E0FE14
:1014910074AC2FF58274043EF583E0FF3395E0FED2
:1014A10074A72FF58274073EF583E493F5809000CD
:1014B10001E004FF75F0081209B7AFF0900001EFE9
:1014C100F0121088121125900471E0D39400400BA2
:1014D100E014F07006120046121991900002E0B477
:0B14E1000508300103B2B422C2B4229F
:100BC200900002E024FE601D146073147003020C96
:100BD2008C147003020CE524046003020D019000E2
:100BE20045740180059000457402F090003AE0FAE5
:100BF200A3E0FB7C007D0AFFAE02120A167C007D98
:100C02000A120A16900048EDF07C007D0AAF03AE8E
:100C120002120A16A3EDF0900046740BF090003A0F
:100C2200E0FEA3E0FF7C007D64120A16900047EF0D
:100C3200F090004A740BF0A3F0A3F0020D019000B3
:100C420040E0FF75F00A84900045F0EF75F00A84E9
:100C5200A3E5F0F0A3740CF090003FE0FF75F00AFA
:100C620084900048F0EF75F00A84A3E5F0F0A374D5
:100C72000CF090003EE0FF75F00A8490004BF0EF1C
:100C820075F00A84A3E5F0F08075900002E0900010
:100C920045F0A3740BF0A3F0A3F090047EE0FAA356
:100CA200E0FB7C037DE8FFAE02120A6B900049EF85
:100CB200F07C007D64AF03AE02120A6BA3EFF090EA
:100CC200047EA3E07C007D0AFFAE02120A6B900054
:100CD2004BEFF07C007D0AAF03AE02120A6BA3ED6C
:100CE200F0801C900002E0900045F0A3740BF0A38A
:100CF200F0A3F0A3F0A3F0A3F0A201E433A3F090D9
:100D02000002E0602990047AE07004A3E0640170BC
:100D120005121A1B8003121A2790047AE0FEA3E040
:0F0D2200FFC3E49FFFE49E90047AF0A3EFF0225A
:100D3100E4FFEFFD3395E0FC74452DF58274003C32
:100D4100F583E0FE74AC2DF58274043CF583EEF07E
:100D51000FEFB408DD9004A4E06049900006E09034
:100D61000054601AE0FF3395E0FE74AC2FF58274F5
:100D7100043EF583740BF0E4900006F08047E0FF39
:100D81003395E0FE74452FF58274003EF583E0FD56
:100D910074AC2FF58274043EF583EDF09000067477
:100DA10001F08021900054E0FF3395E0FE74452F5F
:100DB100F58274003EF583E0FD74AC2FF582740476
:100DC1003EF583EDF030070BE4900002F0FF120EC8
:100DD1009FC207900002E06003020E8530060512F3
:100DE1000FCCC206300512900054E014F0E0C36449
:100DF1008094805002E4F0C205300313900054E067
:100E010004F0E0D36480948740037407F0C2033098
:100E11000D35900054E0FB3395E0FA74452BF582D3
:100E210074003AF583E0FF3395E0FEEF2401FFE41F
:100E31003EFE7C007D0A120A6B74452BF58274001C
:100E41003AF583EDF0C20D30093A900054E0FF33DA
:100E510095E0FE74452FF58274003EF583E0FFC3F3
:100E61006480948050047F098003EF14FF90005444
:100E7100E0FD3395E0FC74452DF58274003CF5836B
:100E8100EFF0C209E49004A1F0A3F0A3F0900032C6
:0D0E9100F09004A5F090049EF0900479F01C
:010E9E002231
:10189A00900002E024FE600804701490002E800379
:1018AA00900003E0FFA3E090003ACFF0A3EFF0022C
:0218BA0013ED2C
:0100290022B4
:01002A0022B3
:1013ED00900002E024FE601214601C146041146031
:1013FD005D2404706E90002E8003900003E0FFA327
:10140D00E090047ECF8023900040E0FF90047EE4C6
:10141D00F0A3EFF090003FE0FF900480E4F0A3EF25
:10142D00F090003EE0FF900482E4F0A3EFF02290F4
:10143D000039E0602E7B017A04797C9004BB742026
:10144D00F07F007E82121705E4900039F0229000A3
:10145D0059E0600FE4FF1217CCEF24FF9201E490E6
:04146D000059F02210
:1014EC007B017A0079299004BB7405F07F007E8023
:1014FC0012174C900029E0601890003C7401F09099
:10150C0000377427F0A374E0F09004747401F08039
:10151C001F90002BE0FFA3E0900037CFF0A3EFF07B
:10152C0090002AE090003CF090002DE0900474F0C4
:10153C00E4900002F0900037E0FFA3E090047CCF31
:09154C00F0A3EFF0E4FF020E9F92
:100FCC00900048E0FF3395E0FE7C037DE8120A04B4
:100FDC00AA06AB07900047E0FF3395E0FE7C277D27
:100FEC0010120A04EF2BFBEE3AFA900049E0FF33A3
:100FFC0095E0FE7C007D64120A04EF2BFBEE3AFABE
:10100C00A3E0FF3395E0FE7D0A120A04EF2BFFEEFE
:10101C003AFEA3E0FD3395E0FCEF2DFFEE3CFE9095
:10102C000037F0A3EFF0900045E0FD90003CF0900D
:10103C00004CE0FC900474F0E4900029F0A3EDF077
:10104C00A3EEF0A3EFF0A3ECF07B017A00792990EA
:10105C0004BB7405F07F007E80121705E49004A495
:10106C00F0900037E0FFA3E090047CCFF0A3EFF00A
:0C107C00900474E0FF900002F0020E9F50
:100E9F00EF147003020F65147003020F65147003D3
:100EAF00020FA0147003020FAD147003020FC624BB
:100EBF00056003020FCB759D8075BC8FE4F597F528
:100ECF00BDF5BE9004A404F0E4900054F090000629
:100EDF00F090003CE0900045F0A3740AF0900037CA
:100EEF00E0FAA3E0FB7C277D10FFAE02120A6B90A5
:100EFF000047EFF07C037DE8AF03AE02120A6B7C74
:100F0F00007D0A120A6BA3EDF0900037A3E07C007E
:100F1F007D64FFAE02120A6B7C007D0A120A6B9091
:100F2F000049EDF07C007D0AAF03AE02120A6B7C24
:100F3F00007D0A120A6BA3EDF0900037E0FEA3E0EC
:100F4F00FF7C007D0A120A6B90004BEDF090047449
:100F5F00E090004CF022759DFF75972090047AE485
:100F6F00F0A304F0E490002EF0A3F0900003F0A3A0
:100F7F00F0900050120B9100000000900055120BE2
:100F8F009100000000E4900030F0A3F09000338057
:100F9F0009E4F59D75972090004DF0A3F0227B0199
:100FAF007A04797C9004BB7420F07F007E82121744
:0D0FBF004CE4900039F022E4900059F0223B
:0618F700C296C295D296D4
:1018FD00C295E4FEEF1392CCD295C295EFC313FFC0
:05190D000EEEB408EF2E
:0119120022B2
:1019A700E4FEEFC313FF30CC034480FFD295C2950A
:0519B7000EEEB408ED86
:0119BC002208
:0A1A33001218F71219A7D295C296F7
:011A3D002286
:0D19F5001218F7AF051218FDD295C2962208
:101088007F81121A33EF5470C4540F75F00AA4FE0E
:10109800EF540F2E90003EF07F83121A33EF5470F6
:1010A800C4540F75F00AA4FEEF540F2EA3F07F85E9
:1010B800121A33EF5470C4540F75F00AA4FEEF549B
:1010C8000F2EA3F07F87121A33EF5470C4540F7594
:1010D800F00AA4FEEF540F2EA3F07F8B121A33EF01
:1010E8005470C4540F75F00AA4FEEF540F2EA3F0E9
:1010F8007F89121A33EF5470C4540F75F00AA4FE96
:10110800EF540F2EA3F07F8D121A33EF5470C4548E
:0C1118000F75F00AA4FEEF540F2EA3F098
:0111240022A8
:07000300D2C012000AD2CDA9
:01000A0022D3
:081A5200120003C2C002000AE9
:0A1A4800C2C0120005D2C002000A5D
:081A5A00C2C0120005C2CD223A
:061A6200120003C2CD22B8
:10182500AD07121A527FA01218BC121837AF051255
:0218350018BCDD
:10183700E4FFD2CD12000A30C009EFC394FF500372
:081847000F80F4C2CD02000A7B
:1018BC00E4FEEF25E0FFC2CD12000A92C012000533
:0F18CC000EEEB408EDC2CD12000AD2C002000A1F
:1017F900C2CD12000AD2C012000AE4FED2CD1200F4
:101809000AEF25E0FDA2C0E4334DFF12000AC2CD64
:0B18190012000A0EEEB408E412000AF0
:0118240022A1
:10000E00AC07121A527FA01218BC121837AF041286
:05001E00182C021A4835
:10002E00121825121A527FA11218BC121837121765
:04003E00F9121A4851
:01004200229B
:10178E00121825121A527FA11218BC121837E4FC37
:10179E009004CDE0FFECC39F50211217F9EF120910
:1017AE00F29004CDE014B50405121A628003121AE9
:0E17BE005A740129F9E43AFA0C80D5021A484F
:10184F001218259004D2E0D3940040191209D9FF41
:10185F001218BC121837740129F9E43AFA9004D21D
:08186F00E014F080DE021A48CB
:0D1A0200E4F5C7F5C5F5C675C380F5C32230
:1019130075C78375C5018FC4EEFF8FC375C65A752E
:0B192300C6A57810A6C2121A02E6FF4B
:01192E002296
:1019480075C78375C5028FC4EEFF8FC3AF058FC2FD
:0919580075C65A75C6A5021A02F3
:1019BD0075C78375C5038FC4EEFF8FC375C65A7582
:0519CD00C6A5021A028C
:081705009004B6EEF0A3EFF032
:10170D001219BD8B098A0A890BE4F5089004BBE018
:10171D00FFE508C39F50279004B7E02508FF90040C
:10172D00B6E03400FEAB09050BE50BAA0A70020505
:0E173D000A14F91209D9FD121948050880CEC8
:01174B00227B
:04174C00AD07AC0633
:10175000780DA60308A60208A601E4780CF690040A
:10176000BBE0FF780CE6FEC39F5022EE2DFFE43C69
:10177000FE121913780D8603080806E61886027013
:0D178000010614F9EF1209F2780C0680D171
:01178D002239
:10161200121A0F1219D212192F1219791200261248
:101622001A3E1219E57F81121A33EF30E7031218BE
:10163200DB1219611214EC300E05C20E1214713055
:101642000205C202120BC2300B05C20B120D313061
:101652000005C20012189A300C05C20C1200293083
:091662000AD5C20A12002A80CE4A
:030000000212DA0F
:0C12DA00787FE4F6D8FD75812202132114
:1009B700C2D530F707B2D563F0FF05F030E70CB2C8
:1009C700D5F4048463F0FF05F080018430D502F488
:0209D7000422F8
:1009D900BB010689828A83E0225002E722BBFE021C
:0909E900E32289828A83E493224F
:1009F200BB010689828A83F0225002F722BBFE01E4
:020A0200F322DD
:100A0400EF8DF0A4A8F0CF8CF0A428CE8DF0A42E06
:020A1400FE22C0
:100A1600BC000BBE0029EF8DF084FFADF022E4CCC4
:100A2600F875F008EF2FFFEE33FEEC33FCEE9DEC8D
:100A3600984005FCEE9DFE0FD5F0E9E4CEFD22EDD3
:100A4600F8F5F0EE8420D21CFEADF075F008EF2F1D
:100A5600FFED33FD4007985006D5F0F222C398FD0E
:050A66000FD5F0EA22AB
:100A6B00C2D5EC30E709B2D5E4C39DFDE49CFCEEA6
:100A7B0030E715B2D5E4C39FFFE49EFE120A16C3FE
:100A8B00E49DFDE49CFC8003120A1630D507C3E4F9
:060A9B009FFFE49EFE2215
:100AA100A3F8E0C5F025F0F0E58215827002158308
:060AB100E0C838F0E82265
:100AB70075F008758200EF2FFFEE33FECD33CDCCF6
:100AC70033CCC58233C5829BED9AEC99E582984079
:100AD7000CF582EE9BFEED9AFDEC99FC0FD5F0D656
:100AE700E4CEFBE4CDFAE4CCF9A88222B800C1B980
:100AF7000059BA002DEC8BF084CFCECDFCE5F0CBBE
:100B0700F97818EF2FFFEE33FEED33FDEC33FCEBF6
:100B170033FB10D703994004EB99FB0FD8E5E4F9B1
:100B2700FA227818EF2FFFEE33FEED33FDEC33FC9E
:100B3700C933C910D7059BE99A4007EC9BFCE99A92
:100B4700F90FD8E0E4C9FAE4CCFB2275F010EF2FD7
:100B5700FFEE33FEED33FDCC33CCC833C810D707D7
:100B67009BEC9AE899400AED9BFDEC9AFCE899F812
:0E0B77000FD5F0DAE4CDFBE4CCFAE4C8F922A5
:0C0B8500ECF0A3EDF0A3EEF0A3EFF022E3
:100B9100A8828583F0D083D082120BA8120BA812F1
:100BA1000BA8120BA8E473E493A3C583C5F0C58316
:100BB100C8C582C8F0A3C583C5F0C583C8C582C8AE
:010BC1002211
:1012E600021612E493A3F8E493A34003F68001F2F6
:1012F60008DFF48029E493A3F85407240CC8C33309
:10130600C4540F4420C8834004F456800146F6DFD7
:10131600E4800B0102040810204080901366E47EEE
:10132600019360BCA3FF543F30E509541FFEE493CC
:10133600A360010ECF54C025E060A840B8E493A393
:10134600FAE493A3F8E493A3C8C582C8CAC583CABE
:10135600F0A3C8C582C8CAC583CADFE9DEE780BE76
:0113EC000000
:00000001FF
